{
  "contractName": "Crud",
  "abi": [
    {
      "inputs": [],
      "name": "nextId",
      "outputs": [
        {
          "internalType": "uint256",
          "name": "",
          "type": "uint256"
        }
      ],
      "stateMutability": "view",
      "type": "function",
      "constant": true
    },
    {
      "inputs": [
        {
          "internalType": "uint256",
          "name": "",
          "type": "uint256"
        }
      ],
      "name": "users",
      "outputs": [
        {
          "internalType": "uint256",
          "name": "id",
          "type": "uint256"
        },
        {
          "internalType": "string",
          "name": "name",
          "type": "string"
        }
      ],
      "stateMutability": "view",
      "type": "function",
      "constant": true
    },
    {
      "inputs": [
        {
          "internalType": "string",
          "name": "name",
          "type": "string"
        }
      ],
      "name": "create",
      "outputs": [],
      "stateMutability": "nonpayable",
      "type": "function"
    },
    {
      "inputs": [
        {
          "internalType": "uint256",
          "name": "id",
          "type": "uint256"
        }
      ],
      "name": "read",
      "outputs": [
        {
          "internalType": "uint256",
          "name": "",
          "type": "uint256"
        },
        {
          "internalType": "string",
          "name": "",
          "type": "string"
        }
      ],
      "stateMutability": "view",
      "type": "function",
      "constant": true
    },
    {
      "inputs": [
        {
          "internalType": "uint256",
          "name": "id",
          "type": "uint256"
        },
        {
          "internalType": "string",
          "name": "name",
          "type": "string"
        }
      ],
      "name": "update",
      "outputs": [],
      "stateMutability": "nonpayable",
      "type": "function"
    },
    {
      "inputs": [
        {
          "internalType": "uint256",
          "name": "id",
          "type": "uint256"
        }
      ],
      "name": "destroy",
      "outputs": [],
      "stateMutability": "nonpayable",
      "type": "function"
    }
  ],
  "bytecode": "0x60806040526001805534801561001457600080fd5b50610a7f806100246000396000f3fe608060405234801561001057600080fd5b50600436106100625760003560e01c8063365b98b21461006757806361b8ce8c146100985780639d118770146100b6578063b6a46b3b146100d2578063ed2e5a97146100ee578063f745630f1461011f575b600080fd5b610081600480360381019061007c91906105db565b61013b565b60405161008f9291906106b0565b60405180910390f35b6100a06101f7565b6040516100ad91906106e0565b60405180910390f35b6100d060048036038101906100cb91906105db565b6101fd565b005b6100ec60048036038101906100e79190610830565b61024b565b005b610108600480360381019061010391906105db565b6102d1565b6040516101169291906106b0565b60405180910390f35b61013960048036038101906101349190610879565b6103c3565b005b6000818154811061014b57600080fd5b906000526020600020906002020160009150905080600001549080600101805461017490610904565b80601f01602080910402602001604051908101604052809291908181526020018280546101a090610904565b80156101ed5780601f106101c2576101008083540402835291602001916101ed565b820191906000526020600020905b8154815290600101906020018083116101d057829003601f168201915b5050505050905082565b60015481565b60006102088261040f565b90506000818154811061021e5761021d610936565b5b906000526020600020906002020160008082016000905560018201600061024591906104ae565b50505050565b6000604051806040016040528060015481526020018381525090806001815401808255809150506001900390600052602060002090600202016000909190919091506000820151816000015560208201518160010190805190602001906102b39291906104ee565b505050600160008154809291906102c990610994565b919050555050565b6000606060006102e08461040f565b9050600081815481106102f6576102f5610936565b5b9060005260206000209060020201600001546000828154811061031c5761031b610936565b5b906000526020600020906002020160010180805461033990610904565b80601f016020809104026020016040519081016040528092919081815260200182805461036590610904565b80156103b25780601f10610387576101008083540402835291602001916103b2565b820191906000526020600020905b81548152906001019060200180831161039557829003601f168201915b505050505090509250925050915091565b60006103ce8361040f565b905081600082815481106103e5576103e4610936565b5b906000526020600020906002020160010190805190602001906104099291906104ee565b50505050565b600080600090505b60008054905081101561046d57826000828154811061043957610438610936565b5b906000526020600020906002020160000154141561045a57809150506104a9565b808061046590610994565b915050610417565b506040517f08c379a00000000000000000000000000000000000000000000000000000000081526004016104a090610a29565b60405180910390fd5b919050565b5080546104ba90610904565b6000825580601f106104cc57506104eb565b601f0160209004906000526020600020908101906104ea9190610574565b5b50565b8280546104fa90610904565b90600052602060002090601f01602090048101928261051c5760008555610563565b82601f1061053557805160ff1916838001178555610563565b82800160010185558215610563579182015b82811115610562578251825591602001919060010190610547565b5b5090506105709190610574565b5090565b5b8082111561058d576000816000905550600101610575565b5090565b6000604051905090565b600080fd5b600080fd5b6000819050919050565b6105b8816105a5565b81146105c357600080fd5b50565b6000813590506105d5816105af565b92915050565b6000602082840312156105f1576105f061059b565b5b60006105ff848285016105c6565b91505092915050565b610611816105a5565b82525050565b600081519050919050565b600082825260208201905092915050565b60005b83811015610651578082015181840152602081019050610636565b83811115610660576000848401525b50505050565b6000601f19601f8301169050919050565b600061068282610617565b61068c8185610622565b935061069c818560208601610633565b6106a581610666565b840191505092915050565b60006040820190506106c56000830185610608565b81810360208301526106d78184610677565b90509392505050565b60006020820190506106f56000830184610608565b92915050565b600080fd5b600080fd5b7f4e487b7100000000000000000000000000000000000000000000000000000000600052604160045260246000fd5b61073d82610666565b810181811067ffffffffffffffff8211171561075c5761075b610705565b5b80604052505050565b600061076f610591565b905061077b8282610734565b919050565b600067ffffffffffffffff82111561079b5761079a610705565b5b6107a482610666565b9050602081019050919050565b82818337600083830152505050565b60006107d36107ce84610780565b610765565b9050828152602081018484840111156107ef576107ee610700565b5b6107fa8482856107b1565b509392505050565b600082601f830112610817576108166106fb565b5b81356108278482602086016107c0565b91505092915050565b6000602082840312156108465761084561059b565b5b600082013567ffffffffffffffff811115610864576108636105a0565b5b61087084828501610802565b91505092915050565b600080604083850312156108905761088f61059b565b5b600061089e858286016105c6565b925050602083013567ffffffffffffffff8111156108bf576108be6105a0565b5b6108cb85828601610802565b9150509250929050565b7f4e487b7100000000000000000000000000000000000000000000000000000000600052602260045260246000fd5b6000600282049050600182168061091c57607f821691505b602082108114156109305761092f6108d5565b5b50919050565b7f4e487b7100000000000000000000000000000000000000000000000000000000600052603260045260246000fd5b7f4e487b7100000000000000000000000000000000000000000000000000000000600052601160045260246000fd5b600061099f826105a5565b91507fffffffffffffffffffffffffffffffffffffffffffffffffffffffffffffffff8214156109d2576109d1610965565b5b600182019050919050565b7f5573657220646f6573206e6f7420657869737421000000000000000000000000600082015250565b6000610a13601483610622565b9150610a1e826109dd565b602082019050919050565b60006020820190508181036000830152610a4281610a06565b905091905056fea2646970667358221220d6589a81f41572817be4bdb5d539d20b34e150f863c2e4418c714833f844dee764736f6c634300080a0033",
  "immutableReferences": {},
  "source": "// SPDX-License-Identifier: MIT\r\npragma solidity >=0.4.22 <0.9.0;\r\n\r\ncontract Crud {\r\n    struct User {\r\n        uint256 id;\r\n        string name;\r\n    }\r\n\r\n    User[] public users;\r\n    uint256 public nextId = 1;\r\n\r\n    function create(string memory name) public {\r\n        users.push(User(nextId, name));\r\n        nextId++;\r\n    }\r\n\r\n    function read(uint256 id) public view returns (uint256, string memory) {\r\n        uint256 i = find(id);\r\n        return (users[i].id, users[i].name);\r\n    }\r\n\r\n    function update(uint256 id, string memory name) public {\r\n        uint256 i = find(id);\r\n        users[i].name = name;\r\n    }\r\n\r\n    function destroy(uint256 id) public {\r\n        uint256 i = find(id);\r\n        delete users[i];\r\n    }\r\n\r\n    function find(uint256 id) internal view returns (uint256) {\r\n        for (uint256 i = 0; i < users.length; i++) {\r\n            if (users[i].id == id) {\r\n                return i;\r\n            }\r\n        }\r\n        revert(\"User does not exist!\");\r\n    }\r\n}\r\n",
  "sourcePath": "C:\\repo\\Blockchain\\blockchain-playground\\Crud\\contracts\\Storage.sol",
  "compiler": {
    "name": "solc",
    "version": "0.8.10+commit.fc410830.Emscripten.clang"
  },
  "schemaVersion": "3.4.3",
  "updatedAt": "2021-12-15T21:58:49.532Z",
  "networkType": "ethereum",
  "devdoc": {
    "kind": "dev",
    "methods": {},
    "version": 1
  },
  "userdoc": {
    "kind": "user",
    "methods": {},
    "version": 1
  }
}