{
  "contractName": "SimpleStorage",
  "abi": [
    {
      "inputs": [
        {
          "internalType": "uint256",
          "name": "num",
          "type": "uint256"
        }
      ],
      "name": "addNumber",
      "outputs": [],
      "stateMutability": "nonpayable",
      "type": "function"
    },
    {
      "inputs": [],
      "name": "getNumbersCount",
      "outputs": [
        {
          "internalType": "uint256",
          "name": "",
          "type": "uint256"
        }
      ],
      "stateMutability": "view",
      "type": "function",
      "constant": true
    }
  ],
  "bytecode": "0x608060405234801561001057600080fd5b50610175806100206000396000f3fe608060405234801561001057600080fd5b50600436106100365760003560e01c8063095527181461003b578063fce6802314610059575b600080fd5b610043610075565b60405161005091906100c6565b60405180910390f35b610073600480360381019061006e9190610112565b610081565b005b60008080549050905090565b600081908060018154018082558091505060019003906000526020600020016000909190919091505550565b6000819050919050565b6100c0816100ad565b82525050565b60006020820190506100db60008301846100b7565b92915050565b600080fd5b6100ef816100ad565b81146100fa57600080fd5b50565b60008135905061010c816100e6565b92915050565b600060208284031215610128576101276100e1565b5b6000610136848285016100fd565b9150509291505056fea2646970667358221220446d45342fea7924d2baf8eb2ae4a5d673c4381327b98520e9d159cda73880a764736f6c634300080a0033",
  "immutableReferences": {},
  "source": "// SPDX-License-Identifier: MIT\r\npragma solidity >=0.4.22 <0.9.0;\r\n\r\ncontract SimpleStorage {\r\n    uint256[] numbers;\r\n\r\n    function addNumber(uint256 num) public {\r\n        numbers.push(num);\r\n    }\r\n\r\n    function getNumbersCount() public view returns (uint256) {\r\n        return numbers.length;\r\n    }\r\n}\r\n",
  "sourcePath": "C:\\repo\\Blockchain\\blockchain-playground\\STorage\\contracts\\Storage.sol",
  "compiler": {
    "name": "solc",
    "version": "0.8.10+commit.fc410830.Emscripten.clang"
  },
  "schemaVersion": "3.4.3",
  "updatedAt": "2021-12-12T15:06:27.335Z",
  "networkType": "ethereum",
  "devdoc": {
    "kind": "dev",
    "methods": {},
    "version": 1
  },
  "userdoc": {
    "kind": "user",
    "methods": {},
    "version": 1
  }
}